{
  "_format": "hh-sol-artifact-1",
  "contractName": "MockAaveV2StablecoinCellar",
  "sourceName": "contracts/MockAaveV2StablecoinCellar.sol",
  "abi": [
    {
      "inputs": [],
      "stateMutability": "nonpayable",
      "type": "constructor"
    },
    {
      "anonymous": false,
      "inputs": [
        {
          "indexed": true,
          "internalType": "address",
          "name": "previousOwner",
          "type": "address"
        },
        {
          "indexed": true,
          "internalType": "address",
          "name": "newOwner",
          "type": "address"
        }
      ],
      "name": "OwnershipTransferred",
      "type": "event"
    },
    {
      "anonymous": false,
      "inputs": [],
      "name": "mockAccrueFees",
      "type": "event"
    },
    {
      "anonymous": false,
      "inputs": [],
      "name": "mockClaimAndUnstake",
      "type": "event"
    },
    {
      "anonymous": false,
      "inputs": [],
      "name": "mockEnterStrategy",
      "type": "event"
    },
    {
      "anonymous": false,
      "inputs": [
        {
          "indexed": false,
          "internalType": "bool",
          "name": "isPaused",
          "type": "bool"
        }
      ],
      "name": "mockPause",
      "type": "event"
    },
    {
      "anonymous": false,
      "inputs": [
        {
          "indexed": false,
          "internalType": "address[]",
          "name": "path",
          "type": "address[]"
        },
        {
          "indexed": false,
          "internalType": "uint256",
          "name": "amountOutMinimum",
          "type": "uint256"
        }
      ],
      "name": "mockRebalance",
      "type": "event"
    },
    {
      "anonymous": false,
      "inputs": [
        {
          "indexed": false,
          "internalType": "address[]",
          "name": "path",
          "type": "address[]"
        },
        {
          "indexed": false,
          "internalType": "uint256",
          "name": "minAssetsOut",
          "type": "uint256"
        }
      ],
      "name": "mockReinvest",
      "type": "event"
    },
    {
      "anonymous": false,
      "inputs": [],
      "name": "mockRemoveLiquidityRestriction",
      "type": "event"
    },
    {
      "anonymous": false,
      "inputs": [],
      "name": "mockShutdown",
      "type": "event"
    },
    {
      "anonymous": false,
      "inputs": [
        {
          "indexed": false,
          "internalType": "address",
          "name": "token",
          "type": "address"
        }
      ],
      "name": "mockSweep",
      "type": "event"
    },
    {
      "anonymous": false,
      "inputs": [],
      "name": "mockTransferFees",
      "type": "event"
    },
    {
      "inputs": [],
      "name": "accrueFees",
      "outputs": [],
      "stateMutability": "nonpayable",
      "type": "function"
    },
    {
      "inputs": [],
      "name": "claimAndUnstake",
      "outputs": [
        {
          "internalType": "uint256",
          "name": "claimed",
          "type": "uint256"
        }
      ],
      "stateMutability": "nonpayable",
      "type": "function"
    },
    {
      "inputs": [],
      "name": "enterStrategy",
      "outputs": [],
      "stateMutability": "nonpayable",
      "type": "function"
    },
    {
      "inputs": [],
      "name": "isPaused",
      "outputs": [
        {
          "internalType": "bool",
          "name": "",
          "type": "bool"
        }
      ],
      "stateMutability": "view",
      "type": "function"
    },
    {
      "inputs": [],
      "name": "owner",
      "outputs": [
        {
          "internalType": "address",
          "name": "",
          "type": "address"
        }
      ],
      "stateMutability": "view",
      "type": "function"
    },
    {
      "inputs": [
        {
          "internalType": "address[]",
          "name": "path",
          "type": "address[]"
        },
        {
          "internalType": "uint256",
          "name": "amountOutMinimum",
          "type": "uint256"
        }
      ],
      "name": "rebalance",
      "outputs": [],
      "stateMutability": "nonpayable",
      "type": "function"
    },
    {
      "inputs": [
        {
          "internalType": "address[]",
          "name": "path",
          "type": "address[]"
        },
        {
          "internalType": "uint256",
          "name": "minAssetsOut",
          "type": "uint256"
        }
      ],
      "name": "reinvest",
      "outputs": [],
      "stateMutability": "nonpayable",
      "type": "function"
    },
    {
      "inputs": [],
      "name": "removeLiquidityRestriction",
      "outputs": [],
      "stateMutability": "nonpayable",
      "type": "function"
    },
    {
      "inputs": [],
      "name": "renounceOwnership",
      "outputs": [],
      "stateMutability": "nonpayable",
      "type": "function"
    },
    {
      "inputs": [
        {
          "internalType": "bool",
          "name": "_isPaused",
          "type": "bool"
        }
      ],
      "name": "setPause",
      "outputs": [],
      "stateMutability": "nonpayable",
      "type": "function"
    },
    {
      "inputs": [],
      "name": "shutdown",
      "outputs": [],
      "stateMutability": "nonpayable",
      "type": "function"
    },
    {
      "inputs": [
        {
          "internalType": "address",
          "name": "token",
          "type": "address"
        }
      ],
      "name": "sweep",
      "outputs": [],
      "stateMutability": "nonpayable",
      "type": "function"
    },
    {
      "inputs": [],
      "name": "transferFees",
      "outputs": [],
      "stateMutability": "nonpayable",
      "type": "function"
    },
    {
      "inputs": [
        {
          "internalType": "address",
          "name": "newOwner",
          "type": "address"
        }
      ],
      "name": "transferOwnership",
      "outputs": [],
      "stateMutability": "nonpayable",
      "type": "function"
    }
  ],
  "bytecode": "0x608060405234801561001057600080fd5b5061001a3361001f565b61006f565b600080546001600160a01b038381166001600160a01b0319831681178455604051919092169283917f8be0079c531659141344cd1fd0a4f28419497f9722a3daafe3b4186f6b6457e09190a35050565b61085c8061007e6000396000f3fe608060405234801561001057600080fd5b50600436106100ea5760003560e01c80638da5cb5b1161008c578063bedb86fb11610066578063bedb86fb146101a4578063c2fbe7bc146101b7578063f2fde38b146101bf578063fc0e74d1146101d257600080fd5b80638da5cb5b1461014a578063ad004e201461016a578063b187bd261461018057600080fd5b806359272e2a116100c857806359272e2a1461011f578063715018a61461012757806378305dd51461012f578063898959501461014257600080fd5b806301681a62146100ef5780632846db021461010457806337a4e83414610117575b600080fd5b6101026100fd36600461067b565b6101da565b005b6101026101123660046106b3565b61024d565b6101026102b4565b610102610309565b61010261035e565b61010261013d3660046106b3565b610394565b6101026103c5565b6000546040516001600160a01b0390911681526020015b60405180910390f35b61017261041a565b604051908152602001610161565b60005461019490600160a01b900460ff1681565b6040519015158152602001610161565b6101026101b236600461077e565b61044b565b6101026104ca565b6101026101cd36600461067b565b61051f565b6101026105ba565b6000546001600160a01b0316331461020d5760405162461bcd60e51b8152600401610204906107a0565b60405180910390fd5b6040516001600160a01b03821681527fc352904aa12ccc4e1b1ae66914c29a0b6aa68f6554ab53b0d3943fabe742d78b906020015b60405180910390a150565b6000546001600160a01b031633146102775760405162461bcd60e51b8152600401610204906107a0565b7f25242bda07a46aa7e9d72c7aca42b90b6883a257ed876327d393c2a1c832eef182826040516102a89291906107d5565b60405180910390a15050565b6000546001600160a01b031633146102de5760405162461bcd60e51b8152600401610204906107a0565b6040517feea290d1596cec66f2811f6ec6d4b3e366f8f9b263e15ea87fb624ab6992404290600090a1565b6000546001600160a01b031633146103335760405162461bcd60e51b8152600401610204906107a0565b6040517f79f347e286799e0fdf15d8e5c56e5ee06f352aefddae4eb82622757f03ea240c90600090a1565b6000546001600160a01b031633146103885760405162461bcd60e51b8152600401610204906107a0565b610392600061060f565b565b7fa820edc96d666f54cd527363abf610e586001232cbb3a97a3c61f121222032d082826040516102a89291906107d5565b6000546001600160a01b031633146103ef5760405162461bcd60e51b8152600401610204906107a0565b6040517f357aa2f9a52ebf8e95a37ec4381ec941f12211d04a5874c78159ebcc3d58aa7e90600090a1565b6040516000907fbfb260c8d19d48ed37a6d7379cdb9622833ea0d1f8389d3b16b0a9dc5cce17b8908290a150606490565b6000546001600160a01b031633146104755760405162461bcd60e51b8152600401610204906107a0565b6000805460ff60a01b1916600160a01b8315158102919091179182905560405160ff9190920416151581527fb24266e8968c43c3fcdc4ee6e69d484c1a6bc4fd4d00b54e1d5c75fec489621090602001610242565b6000546001600160a01b031633146104f45760405162461bcd60e51b8152600401610204906107a0565b6040517f9e1dd58aa34e20b52e0befa7246182b86d06fd56ea0a521d4d3dc8d6241cc43a90600090a1565b6000546001600160a01b031633146105495760405162461bcd60e51b8152600401610204906107a0565b6001600160a01b0381166105ae5760405162461bcd60e51b815260206004820152602660248201527f4f776e61626c653a206e6577206f776e657220697320746865207a65726f206160448201526564647265737360d01b6064820152608401610204565b6105b78161060f565b50565b6000546001600160a01b031633146105e45760405162461bcd60e51b8152600401610204906107a0565b6040517ff02bc92cc12edf99f533f386e56b3945a3e30921d9f866f5b291b886b0fe063290600090a1565b600080546001600160a01b038381166001600160a01b0319831681178455604051919092169283917f8be0079c531659141344cd1fd0a4f28419497f9722a3daafe3b4186f6b6457e09190a35050565b80356001600160a01b038116811461067657600080fd5b919050565b60006020828403121561068d57600080fd5b6106968261065f565b9392505050565b634e487b7160e01b600052604160045260246000fd5b600080604083850312156106c657600080fd5b823567ffffffffffffffff808211156106de57600080fd5b818501915085601f8301126106f257600080fd5b81356020828211156107065761070661069d565b8160051b604051601f19603f8301168101818110868211171561072b5761072b61069d565b60405292835281830193508481018201928984111561074957600080fd5b948201945b8386101561076e5761075f8661065f565b8552948201949382019361074e565b9997909101359750505050505050565b60006020828403121561079057600080fd5b8135801515811461069657600080fd5b6020808252818101527f4f776e61626c653a2063616c6c6572206973206e6f7420746865206f776e6572604082015260600190565b604080825283519082018190526000906020906060840190828701845b828110156108175781516001600160a01b0316845292840192908401906001016107f2565b5050509201929092529291505056fea26469706673582212204fe5d9be00768d8f239c33de0457d595d05226b89cb49dd590d85af7869eb08964736f6c634300080a0033",
  "linkReferences": {},
  "deployedLinkReferences": {}
}